:100000000C9434000C943E000C943E000C943E0082
:100010000C943E000C943E000C943E000C943E0068
:100020000C943E000C943E000C943E000C943E0058
:100030000C943E000C943E000C943E000C943E0048
:100040000C943E000C943E000C943E000C943E0038
:100050000C943E000C943E000C943E000C943E0028
:100060000C943E000C943E0011241FBECFEFD8E04C
:10007000DEBFCDBF0E9434010C9439010C94000006
:1000800050985198589A599A219A89B199B180FDFE
:1000900011C091FD0FC0299A20E030E040E951E005
:1000A000CA010197F1F72F5F3F4F87E220313807F0
:1000B000B9F70895299820E030E040E951E0CA01FD
:1000C0000197F1F72F5F3F4F87E220313807B9F7EB
:1000D000089580E480937C0087E880937A000895F7
:1000E00090917C00987F90937C0090917C00877029
:1000F000892B80937C0080917A00806480937A00C1
:1001000080917A0084FFFCCF80917A008061809397
:100110007A002091780030917900C901089580E437
:1001200080937C0087E880937A0080917C00887FB0
:1001300080937C0080917C0080937C0080917A0089
:10014000806480937A0080917A0084FFFCCF809154
:100150007A00806180937A00809178009091790094
:1001600020E030E040E951E0CA010197F1F72F5F4C
:100170003F4F87E0203D3807B9F70895E0E8F0E009
:10018000808183688083E1E8F0E080818B608083F8
:10019000219A08959C01823D9105A0F48DEC90E098
:1001A000909389008093880020E030E040E951E09E
:1001B000CA010197F1F72F5F3F4F283C3105C1F786
:1001C00084E10895825D90408C529140A0F48AE9C8
:1001D00091E0909389008093880020E030E040E92E
:1001E00051E0CA010197F1F72F5F3F4F283C3105DD
:1001F000C1F789E10895C9018E5F9140883C91055E
:10020000A0F48DEC92E0909389008093880020E028
:1002100030E040E951E0CA010197F1F72F5F3F4F0D
:10022000283C3105C1F78DE10895265C32402B53FF
:100230003140A0F48DEC93E0909389008093880086
:1002400020E030E040E951E0CA010197F1F72F5F6B
:100250003F4F283C3105C1F781E208951092890093
:100260001092880080E008950E9440000E948F0054
:06027000FBCFF894FFCF64
:00000001FF
